{
  "address": "0xd1e2E29282675F9D95F9E2e66304D86DB11f72b5",
  "abi": [
    {
      "inputs": [
        {
          "internalType": "address",
          "name": "exampleExternalContractAddress",
          "type": "address"
        }
      ],
      "stateMutability": "nonpayable",
      "type": "constructor"
    },
    {
      "anonymous": false,
      "inputs": [
        {
          "indexed": true,
          "internalType": "address",
          "name": "",
          "type": "address"
        },
        {
          "indexed": false,
          "internalType": "uint256",
          "name": "",
          "type": "uint256"
        }
      ],
      "name": "Stake",
      "type": "event"
    },
    {
      "inputs": [
        {
          "internalType": "address",
          "name": "",
          "type": "address"
        }
      ],
      "name": "balances",
      "outputs": [
        {
          "internalType": "uint256",
          "name": "",
          "type": "uint256"
        }
      ],
      "stateMutability": "view",
      "type": "function"
    },
    {
      "inputs": [],
      "name": "deadline",
      "outputs": [
        {
          "internalType": "uint256",
          "name": "",
          "type": "uint256"
        }
      ],
      "stateMutability": "view",
      "type": "function"
    },
    {
      "inputs": [],
      "name": "exampleExternalContract",
      "outputs": [
        {
          "internalType": "contract ExampleExternalContract",
          "name": "",
          "type": "address"
        }
      ],
      "stateMutability": "view",
      "type": "function"
    },
    {
      "inputs": [],
      "name": "execute",
      "outputs": [],
      "stateMutability": "nonpayable",
      "type": "function"
    },
    {
      "inputs": [],
      "name": "openForWithdraw",
      "outputs": [
        {
          "internalType": "bool",
          "name": "",
          "type": "bool"
        }
      ],
      "stateMutability": "view",
      "type": "function"
    },
    {
      "inputs": [],
      "name": "stake",
      "outputs": [],
      "stateMutability": "payable",
      "type": "function"
    },
    {
      "inputs": [],
      "name": "threshold",
      "outputs": [
        {
          "internalType": "uint256",
          "name": "",
          "type": "uint256"
        }
      ],
      "stateMutability": "view",
      "type": "function"
    },
    {
      "inputs": [],
      "name": "timeLeft",
      "outputs": [
        {
          "internalType": "uint256",
          "name": "",
          "type": "uint256"
        }
      ],
      "stateMutability": "view",
      "type": "function"
    },
    {
      "inputs": [],
      "name": "withdraw",
      "outputs": [],
      "stateMutability": "nonpayable",
      "type": "function"
    },
    {
      "stateMutability": "payable",
      "type": "receive"
    }
  ],
  "transactionHash": "0xe4afb478168b5024c92b82e385d5d13d25504e4c0296122ed17a897dcc20636d",
  "args": [
    "0x2c48a88529d316B93Cbd25a31B3F0A9767dBe1Fd"
  ],
  "numDeployments": 1,
  "solcInputHash": "3b60d9b062c46d25f53d8f5a18842e2a",
  "bytecode": "0x608060405261000f42601e610062565b60025534801561001e57600080fd5b5060405161083738038061083783398101604081905261003d91610089565b600080546001600160a01b0319166001600160a01b03929092169190911790556100b9565b8082018082111561008357634e487b7160e01b600052601160045260246000fd5b92915050565b60006020828403121561009b57600080fd5b81516001600160a01b03811681146100b257600080fd5b9392505050565b61076f806100c86000396000f3fe60806040526004361061008a5760003560e01c80633ccfd60b116100595780633ccfd60b1461011157806342cde4e81461012657806361461954146101425780639876a643146101575780639f75f2271461018157600080fd5b80631300a6d11461009e57806327e235e3146100c657806329dcb0cf146100f35780633a4b66f11461010957600080fd5b36610099576100976101b9565b005b600080fd5b3480156100aa57600080fd5b506100b3610331565b6040519081526020015b60405180910390f35b3480156100d257600080fd5b506100b36100e136600461067a565b60016020526000908152604090205481565b3480156100ff57600080fd5b506100b360025481565b6100976101b9565b34801561011d57600080fd5b50610097610355565b34801561013257600080fd5b506100b3670de0b6b3a764000081565b34801561014e57600080fd5b50610097610515565b34801561016357600080fd5b506003546101719060ff1681565b60405190151581526020016100bd565b34801561018d57600080fd5b506000546101a1906001600160a01b031681565b6040516001600160a01b0390911681526020016100bd565b60008054906101000a90046001600160a01b03166001600160a01b0316639d9a7fe96040518163ffffffff1660e01b8152600401602060405180830381865afa15801561020a573d6000803e3d6000fd5b505050506040513d601f19601f8201168201806040525081019061022e91906106aa565b156102545760405162461bcd60e51b815260040161024b906106cc565b60405180910390fd5b6000341161028f5760405162461bcd60e51b81526020600482015260086024820152676e6f2076616c756560c01b604482015260640161024b565b60025442106102d65760405162461bcd60e51b815260206004820152601360248201527239ba30b5b4b733903832b934b7b21037bb32b960691b604482015260640161024b565b33600090815260016020526040812080543492906102f590849061070d565b909155505060405134815233907febedb8b3c678666e7f36970bc8f57abf6d8fa2e828c0da91ea5b75bf68ed101a9060200160405180910390a2565b600060025442106103425750600090565b426002546103509190610726565b905090565b60008054906101000a90046001600160a01b03166001600160a01b0316639d9a7fe96040518163ffffffff1660e01b8152600401602060405180830381865afa1580156103a6573d6000803e3d6000fd5b505050506040513d601f19601f820116820180604052508101906103ca91906106aa565b156103e75760405162461bcd60e51b815260040161024b906106cc565b60035460ff1661042e5760405162461bcd60e51b81526020600482015260126024820152711dda5d1a191c985dd85b1cc818db1bdcd95960721b604482015260640161024b565b33600090815260016020526040902054806104785760405162461bcd60e51b815260206004820152600a6024820152696e6f2062616c616e636560b01b604482015260640161024b565b336000818152600160205260408082208290555190919083908381818185875af1925050503d80600081146104c9576040519150601f19603f3d011682016040523d82523d6000602084013e6104ce565b606091505b50509050806105115760405162461bcd60e51b815260206004820152600f60248201526e1dda5d1a191c985dc819985a5b1959608a1b604482015260640161024b565b5050565b60008054906101000a90046001600160a01b03166001600160a01b0316639d9a7fe96040518163ffffffff1660e01b8152600401602060405180830381865afa158015610566573d6000803e3d6000fd5b505050506040513d601f19601f8201168201806040525081019061058a91906106aa565b156105a75760405162461bcd60e51b815260040161024b906106cc565b6002544210156105f05760405162461bcd60e51b8152602060048201526014602482015273191958591b1a5b99481b9bdd081c995858da195960621b604482015260640161024b565b47670de0b6b3a7640000811061066a5760008054906101000a90046001600160a01b03166001600160a01b031663522e1177826040518263ffffffff1660e01b81526004016000604051808303818588803b15801561064e57600080fd5b505af1158015610662573d6000803e3d6000fd5b505050505050565b6003805460ff1916600117905550565b60006020828403121561068c57600080fd5b81356001600160a01b03811681146106a357600080fd5b9392505050565b6000602082840312156106bc57600080fd5b815180151581146106a357600080fd5b602080825260119082015270185b1c9958591e4818dbdb5c1b195d1959607a1b604082015260600190565b634e487b7160e01b600052601160045260246000fd5b80820180821115610720576107206106f7565b92915050565b81810381811115610720576107206106f756fea2646970667358221220b5b73d525d4197ff8bb3b30ab12e653f191cf50ad261dcd6f7027a60a01ce04464736f6c63430008140033",
  "devdoc": {
    "kind": "dev",
    "methods": {},
    "version": 1
  },
  "userdoc": {
    "kind": "user",
    "methods": {},
    "version": 1
  },
  "storageLayout": {
    "storage": [
      {
        "astId": 19,
        "contract": "contracts/Staker.sol:Staker",
        "label": "exampleExternalContract",
        "offset": 0,
        "slot": "0",
        "type": "t_contract(ExampleExternalContract)12"
      },
      {
        "astId": 23,
        "contract": "contracts/Staker.sol:Staker",
        "label": "balances",
        "offset": 0,
        "slot": "1",
        "type": "t_mapping(t_address,t_uint256)"
      },
      {
        "astId": 32,
        "contract": "contracts/Staker.sol:Staker",
        "label": "deadline",
        "offset": 0,
        "slot": "2",
        "type": "t_uint256"
      },
      {
        "astId": 34,
        "contract": "contracts/Staker.sol:Staker",
        "label": "openForWithdraw",
        "offset": 0,
        "slot": "3",
        "type": "t_bool"
      }
    ],
    "types": {
      "t_address": {
        "encoding": "inplace",
        "label": "address",
        "numberOfBytes": "20"
      },
      "t_bool": {
        "encoding": "inplace",
        "label": "bool",
        "numberOfBytes": "1"
      },
      "t_contract(ExampleExternalContract)12": {
        "encoding": "inplace",
        "label": "contract ExampleExternalContract",
        "numberOfBytes": "20"
      },
      "t_mapping(t_address,t_uint256)": {
        "encoding": "mapping",
        "key": "t_address",
        "label": "mapping(address => uint256)",
        "numberOfBytes": "32",
        "value": "t_uint256"
      },
      "t_uint256": {
        "encoding": "inplace",
        "label": "uint256",
        "numberOfBytes": "32"
      }
    }
  }
}